{
  "_format": "hh-sol-artifact-1",
  "contractName": "Mode_related",
  "sourceName": "contracts/Mode.sol",
  "abi": [
    {
      "anonymous": false,
      "inputs": [
        {
          "indexed": false,
          "internalType": "address",
          "name": "owner",
          "type": "address"
        },
        {
          "indexed": false,
          "internalType": "address",
          "name": "smart_contract",
          "type": "address"
        }
      ],
      "name": "Successfully_registered_to_SFS",
      "type": "event"
    },
    {
      "anonymous": false,
      "inputs": [
        {
          "indexed": false,
          "internalType": "address",
          "name": "owner",
          "type": "address"
        },
        {
          "indexed": false,
          "internalType": "uint256",
          "name": "amount",
          "type": "uint256"
        }
      ],
      "name": "Successfully_withdraw_from_SFS",
      "type": "event"
    },
    {
      "inputs": [
        {
          "internalType": "address",
          "name": "owner",
          "type": "address"
        }
      ],
      "name": "registerThis",
      "outputs": [
        {
          "internalType": "uint256",
          "name": "tokenId",
          "type": "uint256"
        }
      ],
      "stateMutability": "nonpayable",
      "type": "function"
    },
    {
      "inputs": [
        {
          "internalType": "uint256",
          "name": "_tokenId",
          "type": "uint256"
        },
        {
          "internalType": "address payable",
          "name": "_recipient",
          "type": "address"
        },
        {
          "internalType": "uint256",
          "name": "_amount",
          "type": "uint256"
        }
      ],
      "name": "withdraw_money",
      "outputs": [
        {
          "internalType": "uint256",
          "name": "",
          "type": "uint256"
        }
      ],
      "stateMutability": "nonpayable",
      "type": "function"
    }
  ],
  "bytecode": "0x6080604052600080546001600160a01b03191673bbd707815a7f7eb6897c7686274afabd7b579ff617905534801561003657600080fd5b50610233806100466000396000f3fe608060405234801561001057600080fd5b50600436106100365760003560e01c806330f951e41461003b5780634b6787f914610060575b600080fd5b61004e61004936600461018f565b610073565b60405190815260200160405180910390f35b61004e61006e3660046101ac565b6100ed565b60008054604051632210724360e11b81526001600160a01b038481166004830152909116908190634420e486906024016020604051808303816000875af11580156100c2573d6000803e3d6000fd5b505050506040513d601f19601f820116820180604052508101906100e691906101e4565b9392505050565b60008054604051631cc6d2f960e31b8152600481018690526001600160a01b0385811660248301526044820185905290911690819063e63697c8906064016020604051808303816000875af115801561014a573d6000803e3d6000fd5b505050506040513d601f19601f8201168201806040525081019061016e91906101e4565b95945050505050565b6001600160a01b038116811461018c57600080fd5b50565b6000602082840312156101a157600080fd5b81356100e681610177565b6000806000606084860312156101c157600080fd5b8335925060208401356101d381610177565b929592945050506040919091013590565b6000602082840312156101f657600080fd5b505191905056fea26469706673582212208eed75446cbd7edbe41f85574c2f4c9626218022511543ec236f36884e48644964736f6c63430008110033",
  "linkReferences": {},
  "deployedLinkReferences": {}
}