{
  "_format": "hh-sol-artifact-1",
  "contractName": "Register",
  "sourceName": "contracts/Mode.sol",
  "abi": [
    {
      "inputs": [
        {
          "internalType": "address",
          "name": "_addr",
          "type": "address"
        }
      ],
      "name": "register",
      "outputs": [
        {
          "internalType": "uint256",
          "name": "tokenId",
          "type": "uint256"
        }
      ],
      "stateMutability": "nonpayable",
      "type": "function"
    },
    {
      "inputs": [
        {
          "internalType": "uint256",
          "name": "_tokenId",
          "type": "uint256"
        },
        {
          "internalType": "address payable",
          "name": "_recipient",
          "type": "address"
        },
        {
          "internalType": "uint256",
          "name": "_amount",
          "type": "uint256"
        }
      ],
      "name": "withdraw",
      "outputs": [
        {
          "internalType": "uint256",
          "name": "",
          "type": "uint256"
        }
      ],
      "stateMutability": "nonpayable",
      "type": "function"
    }
  ],
  "bytecode": "0x608060405234801561001057600080fd5b50610111806100206000396000f3fe6080604052348015600f57600080fd5b506004361060325760003560e01c80634420e486146037578063e63697c814605a575b600080fd5b604860423660046085565b50600090565b60405190815260200160405180910390f35b6048606536600460a6565b60009392505050565b6001600160a01b0381168114608257600080fd5b50565b600060208284031215609657600080fd5b8135609f81606e565b9392505050565b60008060006060848603121560ba57600080fd5b83359250602084013560ca81606e565b92959294505050604091909101359056fea2646970667358221220d3f6f2e37078a79b73f9531bead3f11111b9aa99157f2415c055948740e1ff0f64736f6c63430008110033",
  "linkReferences": {},
  "deployedLinkReferences": {}
}