{
  "_format": "hh-sol-artifact-1",
  "contractName": "Multicall",
  "sourceName": "@thirdweb-dev/contracts/extension/Multicall.sol",
  "abi": [
    {
      "inputs": [
        {
          "internalType": "bytes[]",
          "name": "data",
          "type": "bytes[]"
        }
      ],
      "name": "multicall",
      "outputs": [
        {
          "internalType": "bytes[]",
          "name": "results",
          "type": "bytes[]"
        }
      ],
      "stateMutability": "nonpayable",
      "type": "function"
    }
  ],
  "bytecode": "0x608060405234801561001057600080fd5b506104e7806100206000396000f3fe608060405234801561001057600080fd5b506004361061002b5760003560e01c8063ac9650d814610030575b600080fd5b61004361003e366004610293565b610059565b6040516100509190610358565b60405180910390f35b60608167ffffffffffffffff811115610074576100746103ba565b6040519080825280602002602001820160405280156100a757816020015b60608152602001906001900390816100925790505b50905060005b8281101561014757610117308585848181106100cb576100cb6103d0565b90506020028101906100dd91906103e6565b8080601f01602080910402602001604051908101604052809392919081815260200183838082843760009201919091525061014e92505050565b828281518110610129576101296103d0565b6020026020010181905250808061013f90610434565b9150506100ad565b5092915050565b6060610173838360405180606001604052806027815260200161048b6027913961017a565b9392505050565b60606001600160a01b0384163b151580156101945750333b155b6101e55760405162461bcd60e51b815260206004820152601e60248201527f416464726573733a20696e76616c69642064656c65676174652063616c6c000060448201526064015b60405180910390fd5b600080856001600160a01b031685604051610200919061045b565b600060405180830381855af49150503d806000811461023b576040519150601f19603f3d011682016040523d82523d6000602084013e610240565b606091505b509150915061025082828661025a565b9695505050505050565b60608315610269575081610173565b8251156102795782518084602001fd5b8160405162461bcd60e51b81526004016101dc9190610477565b600080602083850312156102a657600080fd5b823567ffffffffffffffff808211156102be57600080fd5b818501915085601f8301126102d257600080fd5b8135818111156102e157600080fd5b8660208260051b85010111156102f657600080fd5b60209290920196919550909350505050565b60005b8381101561032357818101518382015260200161030b565b50506000910152565b60008151808452610344816020860160208601610308565b601f01601f19169290920160200192915050565b6000602080830181845280855180835260408601915060408160051b870101925083870160005b828110156103ad57603f1988860301845261039b85835161032c565b9450928501929085019060010161037f565b5092979650505050505050565b634e487b7160e01b600052604160045260246000fd5b634e487b7160e01b600052603260045260246000fd5b6000808335601e198436030181126103fd57600080fd5b83018035915067ffffffffffffffff82111561041857600080fd5b60200191503681900382131561042d57600080fd5b9250929050565b60006001820161045457634e487b7160e01b600052601160045260246000fd5b5060010190565b6000825161046d818460208701610308565b9190910192915050565b602081526000610173602083018461032c56fe416464726573733a206c6f772d6c6576656c2064656c65676174652063616c6c206661696c6564a264697066735822122012448246bd8a0b4df93ffb2943f397612b764098c2f3b682094b4f434ba1e14064736f6c63430008110033",
  "linkReferences": {},
  "deployedLinkReferences": {}
}