{
  "_format": "hh-sol-artifact-1",
  "contractName": "ERC1155Base",
  "sourceName": "@thirdweb-dev/contracts/base/ERC1155Base.sol",
  "abi": [
    {
      "inputs": [
        {
          "internalType": "address",
          "name": "_defaultAdmin",
          "type": "address"
        },
        {
          "internalType": "string",
          "name": "_name",
          "type": "string"
        },
        {
          "internalType": "string",
          "name": "_symbol",
          "type": "string"
        },
        {
          "internalType": "address",
          "name": "_royaltyRecipient",
          "type": "address"
        },
        {
          "internalType": "uint128",
          "name": "_royaltyBps",
          "type": "uint128"
        }
      ],
      "stateMutability": "nonpayable",
      "type": "constructor"
    },
    {
      "anonymous": false,
      "inputs": [
        {
          "indexed": true,
          "internalType": "address",
          "name": "_owner",
          "type": "address"
        },
        {
          "indexed": true,
          "internalType": "address",
          "name": "_operator",
          "type": "address"
        },
        {
          "indexed": false,
          "internalType": "bool",
          "name": "_approved",
          "type": "bool"
        }
      ],
      "name": "ApprovalForAll",
      "type": "event"
    },
    {
      "anonymous": false,
      "inputs": [
        {
          "indexed": false,
          "internalType": "uint256",
          "name": "_fromTokenId",
          "type": "uint256"
        },
        {
          "indexed": false,
          "internalType": "uint256",
          "name": "_toTokenId",
          "type": "uint256"
        }
      ],
      "name": "BatchMetadataUpdate",
      "type": "event"
    },
    {
      "anonymous": false,
      "inputs": [
        {
          "indexed": false,
          "internalType": "string",
          "name": "prevURI",
          "type": "string"
        },
        {
          "indexed": false,
          "internalType": "string",
          "name": "newURI",
          "type": "string"
        }
      ],
      "name": "ContractURIUpdated",
      "type": "event"
    },
    {
      "anonymous": false,
      "inputs": [
        {
          "indexed": true,
          "internalType": "address",
          "name": "newRoyaltyRecipient",
          "type": "address"
        },
        {
          "indexed": false,
          "internalType": "uint256",
          "name": "newRoyaltyBps",
          "type": "uint256"
        }
      ],
      "name": "DefaultRoyalty",
      "type": "event"
    },
    {
      "anonymous": false,
      "inputs": [],
      "name": "MetadataFrozen",
      "type": "event"
    },
    {
      "anonymous": false,
      "inputs": [
        {
          "indexed": true,
          "internalType": "address",
          "name": "prevOwner",
          "type": "address"
        },
        {
          "indexed": true,
          "internalType": "address",
          "name": "newOwner",
          "type": "address"
        }
      ],
      "name": "OwnerUpdated",
      "type": "event"
    },
    {
      "anonymous": false,
      "inputs": [
        {
          "indexed": true,
          "internalType": "uint256",
          "name": "tokenId",
          "type": "uint256"
        },
        {
          "indexed": true,
          "internalType": "address",
          "name": "royaltyRecipient",
          "type": "address"
        },
        {
          "indexed": false,
          "internalType": "uint256",
          "name": "royaltyBps",
          "type": "uint256"
        }
      ],
      "name": "RoyaltyForToken",
      "type": "event"
    },
    {
      "anonymous": false,
      "inputs": [
        {
          "indexed": true,
          "internalType": "address",
          "name": "_operator",
          "type": "address"
        },
        {
          "indexed": true,
          "internalType": "address",
          "name": "_from",
          "type": "address"
        },
        {
          "indexed": true,
          "internalType": "address",
          "name": "_to",
          "type": "address"
        },
        {
          "indexed": false,
          "internalType": "uint256[]",
          "name": "_ids",
          "type": "uint256[]"
        },
        {
          "indexed": false,
          "internalType": "uint256[]",
          "name": "_values",
          "type": "uint256[]"
        }
      ],
      "name": "TransferBatch",
      "type": "event"
    },
    {
      "anonymous": false,
      "inputs": [
        {
          "indexed": true,
          "internalType": "address",
          "name": "_operator",
          "type": "address"
        },
        {
          "indexed": true,
          "internalType": "address",
          "name": "_from",
          "type": "address"
        },
        {
          "indexed": true,
          "internalType": "address",
          "name": "_to",
          "type": "address"
        },
        {
          "indexed": false,
          "internalType": "uint256",
          "name": "_id",
          "type": "uint256"
        },
        {
          "indexed": false,
          "internalType": "uint256",
          "name": "_value",
          "type": "uint256"
        }
      ],
      "name": "TransferSingle",
      "type": "event"
    },
    {
      "anonymous": false,
      "inputs": [
        {
          "indexed": false,
          "internalType": "string",
          "name": "_value",
          "type": "string"
        },
        {
          "indexed": true,
          "internalType": "uint256",
          "name": "_id",
          "type": "uint256"
        }
      ],
      "name": "URI",
      "type": "event"
    },
    {
      "inputs": [
        {
          "internalType": "address",
          "name": "",
          "type": "address"
        },
        {
          "internalType": "uint256",
          "name": "",
          "type": "uint256"
        }
      ],
      "name": "balanceOf",
      "outputs": [
        {
          "internalType": "uint256",
          "name": "",
          "type": "uint256"
        }
      ],
      "stateMutability": "view",
      "type": "function"
    },
    {
      "inputs": [
        {
          "internalType": "address[]",
          "name": "accounts",
          "type": "address[]"
        },
        {
          "internalType": "uint256[]",
          "name": "ids",
          "type": "uint256[]"
        }
      ],
      "name": "balanceOfBatch",
      "outputs": [
        {
          "internalType": "uint256[]",
          "name": "",
          "type": "uint256[]"
        }
      ],
      "stateMutability": "view",
      "type": "function"
    },
    {
      "inputs": [
        {
          "internalType": "uint256",
          "name": "",
          "type": "uint256"
        }
      ],
      "name": "batchFrozen",
      "outputs": [
        {
          "internalType": "bool",
          "name": "",
          "type": "bool"
        }
      ],
      "stateMutability": "view",
      "type": "function"
    },
    {
      "inputs": [
        {
          "internalType": "address",
          "name": "_to",
          "type": "address"
        },
        {
          "internalType": "uint256[]",
          "name": "_tokenIds",
          "type": "uint256[]"
        },
        {
          "internalType": "uint256[]",
          "name": "_amounts",
          "type": "uint256[]"
        },
        {
          "internalType": "string",
          "name": "_baseURI",
          "type": "string"
        }
      ],
      "name": "batchMintTo",
      "outputs": [],
      "stateMutability": "nonpayable",
      "type": "function"
    },
    {
      "inputs": [
        {
          "internalType": "address",
          "name": "_owner",
          "type": "address"
        },
        {
          "internalType": "uint256",
          "name": "_tokenId",
          "type": "uint256"
        },
        {
          "internalType": "uint256",
          "name": "_amount",
          "type": "uint256"
        }
      ],
      "name": "burn",
      "outputs": [],
      "stateMutability": "nonpayable",
      "type": "function"
    },
    {
      "inputs": [
        {
          "internalType": "address",
          "name": "_owner",
          "type": "address"
        },
        {
          "internalType": "uint256[]",
          "name": "_tokenIds",
          "type": "uint256[]"
        },
        {
          "internalType": "uint256[]",
          "name": "_amounts",
          "type": "uint256[]"
        }
      ],
      "name": "burnBatch",
      "outputs": [],
      "stateMutability": "nonpayable",
      "type": "function"
    },
    {
      "inputs": [],
      "name": "contractURI",
      "outputs": [
        {
          "internalType": "string",
          "name": "",
          "type": "string"
        }
      ],
      "stateMutability": "view",
      "type": "function"
    },
    {
      "inputs": [],
      "name": "getBaseURICount",
      "outputs": [
        {
          "internalType": "uint256",
          "name": "",
          "type": "uint256"
        }
      ],
      "stateMutability": "view",
      "type": "function"
    },
    {
      "inputs": [
        {
          "internalType": "uint256",
          "name": "_index",
          "type": "uint256"
        }
      ],
      "name": "getBatchIdAtIndex",
      "outputs": [
        {
          "internalType": "uint256",
          "name": "",
          "type": "uint256"
        }
      ],
      "stateMutability": "view",
      "type": "function"
    },
    {
      "inputs": [],
      "name": "getDefaultRoyaltyInfo",
      "outputs": [
        {
          "internalType": "address",
          "name": "",
          "type": "address"
        },
        {
          "internalType": "uint16",
          "name": "",
          "type": "uint16"
        }
      ],
      "stateMutability": "view",
      "type": "function"
    },
    {
      "inputs": [
        {
          "internalType": "uint256",
          "name": "_tokenId",
          "type": "uint256"
        }
      ],
      "name": "getRoyaltyInfoForToken",
      "outputs": [
        {
          "internalType": "address",
          "name": "",
          "type": "address"
        },
        {
          "internalType": "uint16",
          "name": "",
          "type": "uint16"
        }
      ],
      "stateMutability": "view",
      "type": "function"
    },
    {
      "inputs": [
        {
          "internalType": "address",
          "name": "",
          "type": "address"
        },
        {
          "internalType": "address",
          "name": "",
          "type": "address"
        }
      ],
      "name": "isApprovedForAll",
      "outputs": [
        {
          "internalType": "bool",
          "name": "",
          "type": "bool"
        }
      ],
      "stateMutability": "view",
      "type": "function"
    },
    {
      "inputs": [
        {
          "internalType": "address",
          "name": "_to",
          "type": "address"
        },
        {
          "internalType": "uint256",
          "name": "_tokenId",
          "type": "uint256"
        },
        {
          "internalType": "string",
          "name": "_tokenURI",
          "type": "string"
        },
        {
          "internalType": "uint256",
          "name": "_amount",
          "type": "uint256"
        }
      ],
      "name": "mintTo",
      "outputs": [],
      "stateMutability": "nonpayable",
      "type": "function"
    },
    {
      "inputs": [
        {
          "internalType": "bytes[]",
          "name": "data",
          "type": "bytes[]"
        }
      ],
      "name": "multicall",
      "outputs": [
        {
          "internalType": "bytes[]",
          "name": "results",
          "type": "bytes[]"
        }
      ],
      "stateMutability": "nonpayable",
      "type": "function"
    },
    {
      "inputs": [],
      "name": "name",
      "outputs": [
        {
          "internalType": "string",
          "name": "",
          "type": "string"
        }
      ],
      "stateMutability": "view",
      "type": "function"
    },
    {
      "inputs": [],
      "name": "nextTokenIdToMint",
      "outputs": [
        {
          "internalType": "uint256",
          "name": "",
          "type": "uint256"
        }
      ],
      "stateMutability": "view",
      "type": "function"
    },
    {
      "inputs": [],
      "name": "owner",
      "outputs": [
        {
          "internalType": "address",
          "name": "",
          "type": "address"
        }
      ],
      "stateMutability": "view",
      "type": "function"
    },
    {
      "inputs": [
        {
          "internalType": "uint256",
          "name": "tokenId",
          "type": "uint256"
        },
        {
          "internalType": "uint256",
          "name": "salePrice",
          "type": "uint256"
        }
      ],
      "name": "royaltyInfo",
      "outputs": [
        {
          "internalType": "address",
          "name": "receiver",
          "type": "address"
        },
        {
          "internalType": "uint256",
          "name": "royaltyAmount",
          "type": "uint256"
        }
      ],
      "stateMutability": "view",
      "type": "function"
    },
    {
      "inputs": [
        {
          "internalType": "address",
          "name": "from",
          "type": "address"
        },
        {
          "internalType": "address",
          "name": "to",
          "type": "address"
        },
        {
          "internalType": "uint256[]",
          "name": "ids",
          "type": "uint256[]"
        },
        {
          "internalType": "uint256[]",
          "name": "amounts",
          "type": "uint256[]"
        },
        {
          "internalType": "bytes",
          "name": "data",
          "type": "bytes"
        }
      ],
      "name": "safeBatchTransferFrom",
      "outputs": [],
      "stateMutability": "nonpayable",
      "type": "function"
    },
    {
      "inputs": [
        {
          "internalType": "address",
          "name": "from",
          "type": "address"
        },
        {
          "internalType": "address",
          "name": "to",
          "type": "address"
        },
        {
          "internalType": "uint256",
          "name": "id",
          "type": "uint256"
        },
        {
          "internalType": "uint256",
          "name": "amount",
          "type": "uint256"
        },
        {
          "internalType": "bytes",
          "name": "data",
          "type": "bytes"
        }
      ],
      "name": "safeTransferFrom",
      "outputs": [],
      "stateMutability": "nonpayable",
      "type": "function"
    },
    {
      "inputs": [
        {
          "internalType": "address",
          "name": "operator",
          "type": "address"
        },
        {
          "internalType": "bool",
          "name": "approved",
          "type": "bool"
        }
      ],
      "name": "setApprovalForAll",
      "outputs": [],
      "stateMutability": "nonpayable",
      "type": "function"
    },
    {
      "inputs": [
        {
          "internalType": "string",
          "name": "_uri",
          "type": "string"
        }
      ],
      "name": "setContractURI",
      "outputs": [],
      "stateMutability": "nonpayable",
      "type": "function"
    },
    {
      "inputs": [
        {
          "internalType": "address",
          "name": "_royaltyRecipient",
          "type": "address"
        },
        {
          "internalType": "uint256",
          "name": "_royaltyBps",
          "type": "uint256"
        }
      ],
      "name": "setDefaultRoyaltyInfo",
      "outputs": [],
      "stateMutability": "nonpayable",
      "type": "function"
    },
    {
      "inputs": [
        {
          "internalType": "address",
          "name": "_newOwner",
          "type": "address"
        }
      ],
      "name": "setOwner",
      "outputs": [],
      "stateMutability": "nonpayable",
      "type": "function"
    },
    {
      "inputs": [
        {
          "internalType": "uint256",
          "name": "_tokenId",
          "type": "uint256"
        },
        {
          "internalType": "address",
          "name": "_recipient",
          "type": "address"
        },
        {
          "internalType": "uint256",
          "name": "_bps",
          "type": "uint256"
        }
      ],
      "name": "setRoyaltyInfoForToken",
      "outputs": [],
      "stateMutability": "nonpayable",
      "type": "function"
    },
    {
      "inputs": [
        {
          "internalType": "bytes4",
          "name": "interfaceId",
          "type": "bytes4"
        }
      ],
      "name": "supportsInterface",
      "outputs": [
        {
          "internalType": "bool",
          "name": "",
          "type": "bool"
        }
      ],
      "stateMutability": "view",
      "type": "function"
    },
    {
      "inputs": [],
      "name": "symbol",
      "outputs": [
        {
          "internalType": "string",
          "name": "",
          "type": "string"
        }
      ],
      "stateMutability": "view",
      "type": "function"
    },
    {
      "inputs": [
        {
          "internalType": "uint256",
          "name": "",
          "type": "uint256"
        }
      ],
      "name": "totalSupply",
      "outputs": [
        {
          "internalType": "uint256",
          "name": "",
          "type": "uint256"
        }
      ],
      "stateMutability": "view",
      "type": "function"
    },
    {
      "inputs": [
        {
          "internalType": "uint256",
          "name": "_tokenId",
          "type": "uint256"
        }
      ],
      "name": "uri",
      "outputs": [
        {
          "internalType": "string",
          "name": "",
          "type": "string"
        }
      ],
      "stateMutability": "view",
      "type": "function"
    }
  ],
  "bytecode": "0x60806040523480156200001157600080fd5b506040516200363f3803806200363f833981016040819052620000349162000266565b83836000620000448382620003a8565b506001620000538282620003a8565b50505062000067856200008760201b60201c565b6200007c826001600160801b038316620000d9565b505050505062000474565b600680546001600160a01b038381166001600160a01b0319831681179093556040519116919082907f8292fce18fa69edf4db7b94ea2e58241df0ae57f97e0a6c9b29067028bf92d7690600090a35050565b612710811115620001225760405162461bcd60e51b815260206004820152600f60248201526e45786365656473206d61782062707360881b604482015260640160405180910390fd5b600780546001600160a01b0384166001600160b01b03199091168117600160a01b61ffff851602179091556040518281527f90d7ec04bcb8978719414f82e52e4cb651db41d0e6f8cea6118c2191e6183adb9060200160405180910390a25050565b80516001600160a01b03811681146200019c57600080fd5b919050565b634e487b7160e01b600052604160045260246000fd5b600082601f830112620001c957600080fd5b81516001600160401b0380821115620001e657620001e6620001a1565b604051601f8301601f19908116603f01168101908282118183101715620002115762000211620001a1565b816040528381526020925086838588010111156200022e57600080fd5b600091505b8382101562000252578582018301518183018401529082019062000233565b600093810190920192909252949350505050565b600080600080600060a086880312156200027f57600080fd5b6200028a8662000184565b60208701519095506001600160401b0380821115620002a857600080fd5b620002b689838a01620001b7565b95506040880151915080821115620002cd57600080fd5b50620002dc88828901620001b7565b935050620002ed6060870162000184565b60808701519092506001600160801b03811681146200030b57600080fd5b809150509295509295909350565b600181811c908216806200032e57607f821691505b6020821081036200034f57634e487b7160e01b600052602260045260246000fd5b50919050565b601f821115620003a357600081815260208120601f850160051c810160208610156200037e5750805b601f850160051c820191505b818110156200039f578281556001016200038a565b5050505b505050565b81516001600160401b03811115620003c457620003c4620001a1565b620003dc81620003d5845462000319565b8462000355565b602080601f831160018114620004145760008415620003fb5750858301515b600019600386901b1c1916600185901b1785556200039f565b600085815260208120601f198616915b82811015620004455788860151825594840194600190910190840162000424565b5085821015620004645787850151600019600388901b60f8161c191681555b5050505050600190811b01905550565b6131bb80620004846000396000f3fe608060405234801561001057600080fd5b50600436106101ce5760003560e01c80638304053211610104578063ac9650d8116100a2578063e8a3d48511610071578063e8a3d48514610457578063e985e9c51461045f578063f242432a1461048d578063f5298aca146104a057600080fd5b8063ac9650d8146103e6578063b03f452814610406578063b24f2d3914610419578063bd85b0391461043757600080fd5b8063949c09f7116100de578063949c09f7146103a557806395d89b41146103b85780639bcf7a15146103c0578063a22cb465146103d357600080fd5b806383040532146103545780638da5cb5b14610377578063938e3d7b1461039257600080fd5b80632eb2c2d6116101715780634e1273f41161014b5780634e1273f414610306578063600dd5ea1461032657806363b45e2d146103395780636b20c4541461034157600080fd5b80632eb2c2d6146102b65780633b1475a7146102c95780634cc157df146102d157600080fd5b80630e89341c116101ad5780630e89341c1461024957806313af40351461025c5780632419f51b146102715780632a55205a1461028457600080fd5b8062fdd58e146101d357806301ffc9a71461021157806306fdde0314610234575b600080fd5b6101fe6101e13660046124a0565b600260209081526000928352604080842090915290825290205481565b6040519081526020015b60405180910390f35b61022461021f3660046124e0565b6104b3565b6040519015158152602001610208565b61023c610520565b604051610208919061254d565b61023c610257366004612560565b6105ae565b61026f61026a366004612579565b61069c565b005b6101fe61027f366004612560565b6106d5565b610297610292366004612594565b610743565b604080516001600160a01b039093168352602083019190915201610208565b61026f6102c43660046126ff565b610780565b600c546101fe565b6102e46102df366004612560565b61080f565b604080516001600160a01b03909316835261ffff909116602083015201610208565b6103196103143660046127a8565b61087a565b60405161020891906128ad565b61026f6103343660046124a0565b61098e565b6009546101fe565b61026f61034f3660046128c0565b6109c0565b610224610362366004612560565b600b6020526000908152604090205460ff1681565b6006546040516001600160a01b039091168152602001610208565b61026f6103a0366004612933565b610b62565b61026f6103b3366004612967565b610b8f565b61023c610d8a565b61026f6103ce3660046129ff565b610d97565b61026f6103e1366004612a34565b610dcb565b6103f96103f4366004612a70565b610e83565b6040516102089190612ae4565b61026f610414366004612b46565b610f77565b6007546001600160a01b03811690600160a01b900461ffff166102e4565b6101fe610445366004612560565b600d6020526000908152604090205481565b61023c61106a565b61022461046d366004612ba4565b600360209081526000928352604080842090915290825290205460ff1681565b61026f61049b366004612bd7565b611077565b61026f6104ae366004612c3b565b6110ff565b60006301ffc9a760e01b6001600160e01b0319831614806104e45750636cdb3d1360e11b6001600160e01b03198316145b806104ff57506303a24d0760e21b6001600160e01b03198316145b8061051a57506001600160e01b0319821663152a902d60e11b145b92915050565b6000805461052d90612c6e565b80601f016020809104026020016040519081016040528092919081815260200182805461055990612c6e565b80156105a65780601f1061057b576101008083540402835291602001916105a6565b820191906000526020600020905b81548152906001019060200180831161058957829003601f168201915b505050505081565b6000818152600460205260408120805460609291906105cc90612c6e565b80601f01602080910402602001604051908101604052809291908181526020018280546105f890612c6e565b80156106455780601f1061061a57610100808354040283529160200191610645565b820191906000526020600020905b81548152906001019060200180831161062857829003601f168201915b5050505050905060008151111561065c5792915050565b6000610667846111f4565b90508061067385611390565b604051602001610684929190612ca8565b60405160208183030381529060405292505050919050565b6106a4611498565b6106c95760405162461bcd60e51b81526004016106c090612cd7565b60405180910390fd5b6106d2816114c5565b50565b60006106e060095490565b821061071e5760405162461bcd60e51b815260206004820152600d60248201526c092dcecc2d8d2c840d2dcc8caf609b1b60448201526064016106c0565b6009828154811061073157610731612cff565b90600052602060002001549050919050565b6000806000806107528661080f565b90945084925061ffff16905061271061076b8287612d2b565b6107759190612d58565b925050509250929050565b6001600160a01b0385163314806107ba57506001600160a01b038516600090815260036020908152604080832033845290915290205460ff165b6107fb5760405162461bcd60e51b81526020600482015260126024820152710853d5d3915497d3d497d054141493d5915160721b60448201526064016106c0565b6108088585858585611517565b5050505050565b6000818152600860209081526040808320815180830190925280546001600160a01b0316808352600190910154928201929092528291156108565780516020820151610870565b6007546001600160a01b03811690600160a01b900461ffff165b9250925050915091565b6060815183511461089d5760405162461bcd60e51b81526004016106c090612d6c565b600083516001600160401b038111156108b8576108b86125b6565b6040519080825280602002602001820160405280156108e1578160200160208202803683370190505b50905060005b8451811015610986576002600086838151811061090657610906612cff565b60200260200101516001600160a01b03166001600160a01b03168152602001908152602001600020600085838151811061094257610942612cff565b602002602001015181526020019081526020016000205482828151811061096b5761096b612cff565b602090810291909101015261097f81612d95565b90506108e7565b509392505050565b610996611498565b6109b25760405162461bcd60e51b81526004016106c090612cd7565b6109bc82826116ca565b5050565b336001600160a01b0384168114806109fd57506001600160a01b0380851660009081526003602090815260408083209385168352929052205460ff165b610a3d5760405162461bcd60e51b81526020600482015260116024820152702ab730b8383937bb32b21031b0b63632b960791b60448201526064016106c0565b8151835114610a805760405162461bcd60e51b815260206004820152600f60248201526e098cadccee8d040dad2e6dac2e8c6d608b1b60448201526064016106c0565b60005b8351811015610b5057828181518110610a9e57610a9e612cff565b602002602001015160026000876001600160a01b03166001600160a01b031681526020019081526020016000206000868481518110610adf57610adf612cff565b60200260200101518152602001908152602001600020541015610b3e5760405162461bcd60e51b8152602060048201526017602482015276139bdd08195b9bdd59da081d1bdad95b9cc81bdddb9959604a1b60448201526064016106c0565b610b49600182612dae565b9050610a83565b50610b5c848484611770565b50505050565b610b6a611498565b610b865760405162461bcd60e51b81526004016106c090612cd7565b6106d281611925565b610b97611498565b610bdd5760405162461bcd60e51b81526020600482015260176024820152762737ba1030baba3437b934bd32b2103a379036b4b73a1760491b60448201526064016106c0565b6000825111610c255760405162461bcd60e51b815260206004820152601460248201527326b4b73a34b733903d32b937903a37b5b2b7399760611b60448201526064016106c0565b8151835114610c695760405162461bcd60e51b815260206004820152601060248201526f2632b733ba341036b4b9b6b0ba31b41760811b60448201526064016106c0565b6000610c74600c5490565b9050806000805b8651811015610d4a57600019878281518110610c9957610c99612cff565b602002602001015103610ce35783878281518110610cb957610cb9612cff565b6020908102919091010152610ccf600185612dae565b9350610cdc600183612dae565b9150610d38565b83878281518110610cf657610cf6612cff565b602002602001015110610d385760405162461bcd60e51b815260206004820152600a6024820152691a5b9d985b1a59081a5960b21b60448201526064016106c0565b610d43600182612dae565b9050610c7b565b508015610d5f57610d5c828286611a01565b50505b82600c81905550610d8187878760405180602001604052806000815250611a65565b50505050505050565b6001805461052d90612c6e565b610d9f611498565b610dbb5760405162461bcd60e51b81526004016106c090612cd7565b610dc6838383611bc0565b505050565b336001600160a01b0383168103610e155760405162461bcd60e51b815260206004820152600e60248201526d20a8282927ab24a723afa9a2a62360911b60448201526064016106c0565b6001600160a01b03818116600081815260036020908152604080832094881680845294825291829020805460ff191687151590811790915591519182527f17307eab39ab6107e8899845ad3d59bd9653f200f220920489ca2b5937696c3191015b60405180910390a3505050565b6060816001600160401b03811115610e9d57610e9d6125b6565b604051908082528060200260200182016040528015610ed057816020015b6060815260200190600190039081610ebb5790505b50905060005b82811015610f7057610f4030858584818110610ef457610ef4612cff565b9050602002810190610f069190612dc1565b8080601f016020809104026020016040519081016040528093929190818152602001838380828437600092019190915250611c8192505050565b828281518110610f5257610f52612cff565b60200260200101819052508080610f6890612d95565b915050610ed6565b5092915050565b610f7f611498565b610fc55760405162461bcd60e51b81526020600482015260176024820152762737ba1030baba3437b934bd32b2103a379036b4b73a1760491b60448201526064016106c0565b600080610fd1600c5490565b90506000198503611007578091506001600c6000828254610ff29190612dae565b9091555061100290508185611cad565b611047565b8085106110435760405162461bcd60e51b815260206004820152600a6024820152691a5b9d985b1a59081a5960b21b60448201526064016106c0565b8491505b61106286838560405180602001604052806000815250611cc5565b505050505050565b6005805461052d90612c6e565b6001600160a01b0385163314806110b157506001600160a01b038516600090815260036020908152604080832033845290915290205460ff165b6110f25760405162461bcd60e51b81526020600482015260126024820152710853d5d3915497d3d497d054141493d5915160721b60448201526064016106c0565b6108088585858585611d9e565b336001600160a01b03841681148061113c57506001600160a01b0380851660009081526003602090815260408083209385168352929052205460ff165b61117c5760405162461bcd60e51b81526020600482015260116024820152702ab730b8383937bb32b21031b0b63632b960791b60448201526064016106c0565b6001600160a01b03841660009081526002602090815260408083208684529091529020548211156111e95760405162461bcd60e51b8152602060048201526017602482015276139bdd08195b9bdd59da081d1bdad95b9cc81bdddb9959604a1b60448201526064016106c0565b610b5c848484611ec4565b6060600061120160095490565b90506000600980548060200260200160405190810160405280929190818152602001828054801561125157602002820191906000526020600020905b81548152602001906001019080831161123d575b5050505050905060005b828110156113555781818151811061127557611275612cff565b602002602001015185101561134357600a600083838151811061129a5761129a612cff565b6020026020010151815260200190815260200160002080546112bb90612c6e565b80601f01602080910402602001604051908101604052809291908181526020018280546112e790612c6e565b80156113345780601f1061130957610100808354040283529160200191611334565b820191906000526020600020905b81548152906001019060200180831161131757829003601f168201915b50505050509350505050919050565b61134e600182612dae565b905061125b565b5060405162461bcd60e51b815260206004820152600f60248201526e125b9d985b1a59081d1bdad95b9259608a1b60448201526064016106c0565b6060816000036113b75750506040805180820190915260018152600360fc1b602082015290565b8160005b81156113e157806113cb81612d95565b91506113da9050600a83612d58565b91506113bb565b6000816001600160401b038111156113fb576113fb6125b6565b6040519080825280601f01601f191660200182016040528015611425576020820181803683370190505b5090505b84156114905761143a600183612e0e565b9150611447600a86612e21565b611452906030612dae565b60f81b81838151811061146757611467612cff565b60200101906001600160f81b031916908160001a905350611489600a86612d58565b9450611429565b949350505050565b60006114ac6006546001600160a01b031690565b6001600160a01b0316336001600160a01b031614905090565b600680546001600160a01b038381166001600160a01b0319831681179093556040519116919082907f8292fce18fa69edf4db7b94ea2e58241df0ae57f97e0a6c9b29067028bf92d7690600090a35050565b81518351146115385760405162461bcd60e51b81526004016106c090612d6c565b6001600160a01b03841661155e5760405162461bcd60e51b81526004016106c090612e35565b3361156d818787878787611fe9565b60005b845181101561166457600085828151811061158d5761158d612cff565b6020026020010151905060008583815181106115ab576115ab612cff565b6020908102919091018101516001600160a01b038b1660009081526002835260408082208683529093529190912054909150818110156115fd5760405162461bcd60e51b81526004016106c090612e5b565b6001600160a01b03808b16600090815260026020818152604080842088855282528084208787039055938d16835290815282822086835290529081208054849290611649908490612dae565b925050819055505050508061165d90612d95565b9050611570565b50846001600160a01b0316866001600160a01b0316826001600160a01b03167f4a39dc06d4c0dbc64b70af90fd698a233a518aa5d07e595d983b8c0526c8f7fb87876040516116b4929190612e85565b60405180910390a46110628187878787876120f5565b61271081111561170e5760405162461bcd60e51b815260206004820152600f60248201526e45786365656473206d61782062707360881b60448201526064016106c0565b600780546001600160a01b0384166001600160b01b03199091168117600160a01b61ffff851602179091556040518281527f90d7ec04bcb8978719414f82e52e4cb651db41d0e6f8cea6118c2191e6183adb9060200160405180910390a25050565b6001600160a01b0383166117b75760405162461bcd60e51b815260206004820152600e60248201526d232927a6afad22a927afa0a2222960911b60448201526064016106c0565b80518251146117d85760405162461bcd60e51b81526004016106c090612d6c565b60003390506117fb81856000868660405180602001604052806000815250611fe9565b60005b83518110156118c657600084828151811061181b5761181b612cff565b60200260200101519050600084838151811061183957611839612cff565b6020908102919091018101516001600160a01b038916600090815260028352604080822086835290935291909120549091508181101561188b5760405162461bcd60e51b81526004016106c090612e5b565b6001600160a01b03881660009081526002602090815260408083209583529490529290922091039055806118be81612d95565b9150506117fe565b5060006001600160a01b0316846001600160a01b0316826001600160a01b03167f4a39dc06d4c0dbc64b70af90fd698a233a518aa5d07e595d983b8c0526c8f7fb8686604051611917929190612e85565b60405180910390a450505050565b60006005805461193490612c6e565b80601f016020809104026020016040519081016040528092919081815260200182805461196090612c6e565b80156119ad5780601f10611982576101008083540402835291602001916119ad565b820191906000526020600020905b81548152906001019060200180831161199057829003601f168201915b5050505050905081600590816119c39190612ef9565b507fc9c7c3fe08b88b4df9d4d47ef47d2c43d55c025a0ba88ca442580ed9e7348a1681836040516119f5929190612fb8565b60405180910390a15050565b600080611a0e8486612dae565b60098054600181019091557f6e1540171b6c0c960b71a7020d9f60077f6af931a8bbf590da0223dacf75c7af018190556000818152600a60205260409020909250829150611a5c8482612ef9565b50935093915050565b6001600160a01b038416611a8b5760405162461bcd60e51b81526004016106c090612e35565b8151835114611aac5760405162461bcd60e51b81526004016106c090612d6c565b33611abc81600087878787611fe9565b60005b8451811015611b5857838181518110611ada57611ada612cff565b602002602001015160026000886001600160a01b03166001600160a01b031681526020019081526020016000206000878481518110611b1b57611b1b612cff565b602002602001015181526020019081526020016000206000828254611b409190612dae565b90915550819050611b5081612d95565b915050611abf565b50846001600160a01b031660006001600160a01b0316826001600160a01b03167f4a39dc06d4c0dbc64b70af90fd698a233a518aa5d07e595d983b8c0526c8f7fb8787604051611ba9929190612e85565b60405180910390a4610808816000878787876120f5565b612710811115611c045760405162461bcd60e51b815260206004820152600f60248201526e45786365656473206d61782062707360881b60448201526064016106c0565b6040805180820182526001600160a01b038481168083526020808401868152600089815260088352869020945185546001600160a01b031916941693909317845591516001909301929092559151838152909185917f7365cf4122f072a3365c20d54eff9b38d73c096c28e1892ec8f5b0e403a0f12d9101610e76565b6060611ca6838360405180606001604052806027815260200161315f60279139612248565b9392505050565b6000828152600460205260409020610dc68282612ef9565b6001600160a01b038416611ceb5760405162461bcd60e51b81526004016106c090612e35565b33611d0b81600087611cfc88612323565b611d0588612323565b87611fe9565b6001600160a01b038516600090815260026020908152604080832087845290915281208054859290611d3e908490612dae565b909155505060408051858152602081018590526001600160a01b0380881692600092918516917fc3d58168c5ae7397731d063d5bbf3d657854427343f4c083240f7aacaa2d0f62910160405180910390a46108088160008787878761236e565b6001600160a01b038416611dc45760405162461bcd60e51b81526004016106c090612e35565b33611dd4818787611cfc88612323565b6001600160a01b038616600090815260026020908152604080832087845290915290205483811015611e185760405162461bcd60e51b81526004016106c090612e5b565b6001600160a01b0380881660009081526002602081815260408084208a855282528084208987039055938a16835290815282822088835290529081208054869290611e64908490612dae565b909155505060408051868152602081018690526001600160a01b03808916928a821692918616917fc3d58168c5ae7397731d063d5bbf3d657854427343f4c083240f7aacaa2d0f62910160405180910390a4610d8182888888888861236e565b6001600160a01b038316611f0b5760405162461bcd60e51b815260206004820152600e60248201526d232927a6afad22a927afa0a2222960911b60448201526064016106c0565b33611f3a81856000611f1c87612323565b611f2587612323565b60405180602001604052806000815250611fe9565b6001600160a01b038416600090815260026020908152604080832086845290915290205482811015611f7e5760405162461bcd60e51b81526004016106c090612e5b565b6001600160a01b03858116600081815260026020908152604080832089845282528083208887039055805189815291820188905291938616917fc3d58168c5ae7397731d063d5bbf3d657854427343f4c083240f7aacaa2d0f62910160405180910390a45050505050565b6001600160a01b0385166120705760005b835181101561206e5782818151811061201557612015612cff565b6020026020010151600d600086848151811061203357612033612cff565b6020026020010151815260200190815260200160002060008282546120589190612dae565b90915550612067905081612d95565b9050611ffa565b505b6001600160a01b0384166110625760005b8351811015610d815782818151811061209c5761209c612cff565b6020026020010151600d60008684815181106120ba576120ba612cff565b6020026020010151815260200190815260200160002060008282546120df9190612e0e565b909155506120ee905081612d95565b9050612081565b6001600160a01b0384163b156110625760405163bc197c8160e01b81526001600160a01b0385169063bc197c81906121399089908990889088908890600401612fdd565b6020604051808303816000875af1925050508015612174575060408051601f3d908101601f191682019092526121719181019061303b565b60015b6121f657612180613058565b806308c379a0036121b95750612194613074565b8061219f57506121bb565b8060405162461bcd60e51b81526004016106c0919061254d565b505b60405162461bcd60e51b815260206004820152601060248201526f10a2a92198989a9aa922a1a2a4ab22a960811b60448201526064016106c0565b6001600160e01b0319811663bc197c8160e01b14610d815760405162461bcd60e51b815260206004820152600f60248201526e1513d2d15394d7d491529150d51151608a1b60448201526064016106c0565b60606001600160a01b0384163b151580156122625750333b155b6122ae5760405162461bcd60e51b815260206004820152601e60248201527f416464726573733a20696e76616c69642064656c65676174652063616c6c000060448201526064016106c0565b600080856001600160a01b0316856040516122c991906130fd565b600060405180830381855af49150503d8060008114612304576040519150601f19603f3d011682016040523d82523d6000602084013e612309565b606091505b509150915061231982828661244b565b9695505050505050565b6040805160018082528183019092526060916000919060208083019080368337019050509050828160008151811061235d5761235d612cff565b602090810291909101015292915050565b6001600160a01b0384163b156110625760405163f23a6e6160e01b81526001600160a01b0385169063f23a6e61906123b29089908990889088908890600401613119565b6020604051808303816000875af19250505080156123ed575060408051601f3d908101601f191682019092526123ea9181019061303b565b60015b6123f957612180613058565b6001600160e01b0319811663f23a6e6160e01b14610d815760405162461bcd60e51b815260206004820152600f60248201526e1513d2d15394d7d491529150d51151608a1b60448201526064016106c0565b6060831561245a575081611ca6565b82511561246a5782518084602001fd5b8160405162461bcd60e51b81526004016106c0919061254d565b80356001600160a01b038116811461249b57600080fd5b919050565b600080604083850312156124b357600080fd5b6124bc83612484565b946020939093013593505050565b6001600160e01b0319811681146106d257600080fd5b6000602082840312156124f257600080fd5b8135611ca6816124ca565b60005b83811015612518578181015183820152602001612500565b50506000910152565b600081518084526125398160208601602086016124fd565b601f01601f19169290920160200192915050565b602081526000611ca66020830184612521565b60006020828403121561257257600080fd5b5035919050565b60006020828403121561258b57600080fd5b611ca682612484565b600080604083850312156125a757600080fd5b50508035926020909101359150565b634e487b7160e01b600052604160045260246000fd5b601f8201601f191681016001600160401b03811182821017156125f1576125f16125b6565b6040525050565b60006001600160401b03821115612611576126116125b6565b5060051b60200190565b600082601f83011261262c57600080fd5b81356020612639826125f8565b60405161264682826125cc565b83815260059390931b850182019282810191508684111561266657600080fd5b8286015b84811015612681578035835291830191830161266a565b509695505050505050565b600082601f83011261269d57600080fd5b81356001600160401b038111156126b6576126b66125b6565b6040516126cd601f8301601f1916602001826125cc565b8181528460208386010111156126e257600080fd5b816020850160208301376000918101602001919091529392505050565b600080600080600060a0868803121561271757600080fd5b61272086612484565b945061272e60208701612484565b935060408601356001600160401b038082111561274a57600080fd5b61275689838a0161261b565b9450606088013591508082111561276c57600080fd5b61277889838a0161261b565b9350608088013591508082111561278e57600080fd5b5061279b8882890161268c565b9150509295509295909350565b600080604083850312156127bb57600080fd5b82356001600160401b03808211156127d257600080fd5b818501915085601f8301126127e657600080fd5b813560206127f3826125f8565b60405161280082826125cc565b83815260059390931b850182019282810191508984111561282057600080fd5b948201945b838610156128455761283686612484565b82529482019490820190612825565b9650508601359250508082111561285b57600080fd5b506128688582860161261b565b9150509250929050565b600081518084526020808501945080840160005b838110156128a257815187529582019590820190600101612886565b509495945050505050565b602081526000611ca66020830184612872565b6000806000606084860312156128d557600080fd5b6128de84612484565b925060208401356001600160401b03808211156128fa57600080fd5b6129068783880161261b565b9350604086013591508082111561291c57600080fd5b506129298682870161261b565b9150509250925092565b60006020828403121561294557600080fd5b81356001600160401b0381111561295b57600080fd5b6114908482850161268c565b6000806000806080858703121561297d57600080fd5b61298685612484565b935060208501356001600160401b03808211156129a257600080fd5b6129ae8883890161261b565b945060408701359150808211156129c457600080fd5b6129d08883890161261b565b935060608701359150808211156129e657600080fd5b506129f38782880161268c565b91505092959194509250565b600080600060608486031215612a1457600080fd5b83359250612a2460208501612484565b9150604084013590509250925092565b60008060408385031215612a4757600080fd5b612a5083612484565b915060208301358015158114612a6557600080fd5b809150509250929050565b60008060208385031215612a8357600080fd5b82356001600160401b0380821115612a9a57600080fd5b818501915085601f830112612aae57600080fd5b813581811115612abd57600080fd5b8660208260051b8501011115612ad257600080fd5b60209290920196919550909350505050565b6000602080830181845280855180835260408601915060408160051b870101925083870160005b82811015612b3957603f19888603018452612b27858351612521565b94509285019290850190600101612b0b565b5092979650505050505050565b60008060008060808587031215612b5c57600080fd5b612b6585612484565b93506020850135925060408501356001600160401b03811115612b8757600080fd5b612b938782880161268c565b949793965093946060013593505050565b60008060408385031215612bb757600080fd5b612bc083612484565b9150612bce60208401612484565b90509250929050565b600080600080600060a08688031215612bef57600080fd5b612bf886612484565b9450612c0660208701612484565b9350604086013592506060860135915060808601356001600160401b03811115612c2f57600080fd5b61279b8882890161268c565b600080600060608486031215612c5057600080fd5b612c5984612484565b95602085013595506040909401359392505050565b600181811c90821680612c8257607f821691505b602082108103612ca257634e487b7160e01b600052602260045260246000fd5b50919050565b60008351612cba8184602088016124fd565b835190830190612cce8183602088016124fd565b01949350505050565b6020808252600e908201526d139bdd08185d5d1a1bdc9a5e995960921b604082015260600190565b634e487b7160e01b600052603260045260246000fd5b634e487b7160e01b600052601160045260246000fd5b808202811582820484141761051a5761051a612d15565b634e487b7160e01b600052601260045260246000fd5b600082612d6757612d67612d42565b500490565b6020808252600f908201526e0988a9c8ea890be9a92a69a82a8869608b1b604082015260600190565b600060018201612da757612da7612d15565b5060010190565b8082018082111561051a5761051a612d15565b6000808335601e19843603018112612dd857600080fd5b8301803591506001600160401b03821115612df257600080fd5b602001915036819003821315612e0757600080fd5b9250929050565b8181038181111561051a5761051a612d15565b600082612e3057612e30612d42565b500690565b6020808252600c908201526b2a27afad22a927afa0a2222960a11b604082015260600190565b60208082526010908201526f125394d551919250d251539517d0905360821b604082015260600190565b604081526000612e986040830185612872565b8281036020840152612eaa8185612872565b95945050505050565b601f821115610dc657600081815260208120601f850160051c81016020861015612eda5750805b601f850160051c820191505b8181101561106257828155600101612ee6565b81516001600160401b03811115612f1257612f126125b6565b612f2681612f208454612c6e565b84612eb3565b602080601f831160018114612f5b5760008415612f435750858301515b600019600386901b1c1916600185901b178555611062565b600085815260208120601f198616915b82811015612f8a57888601518255948401946001909101908401612f6b565b5085821015612fa85787850151600019600388901b60f8161c191681555b5050505050600190811b01905550565b604081526000612fcb6040830185612521565b8281036020840152612eaa8185612521565b6001600160a01b0386811682528516602082015260a06040820181905260009061300990830186612872565b828103606084015261301b8186612872565b9050828103608084015261302f8185612521565b98975050505050505050565b60006020828403121561304d57600080fd5b8151611ca6816124ca565b600060033d11156130715760046000803e5060005160e01c5b90565b600060443d10156130825790565b6040516003193d81016004833e81513d6001600160401b0381602484011181841117156130b157505050505090565b82850191508151818111156130c95750505050505090565b843d87010160208285010111156130e35750505050505090565b6130f2602082860101876125cc565b509095945050505050565b6000825161310f8184602087016124fd565b9190910192915050565b6001600160a01b03868116825285166020820152604081018490526060810183905260a06080820181905260009061315390830184612521565b97965050505050505056fe416464726573733a206c6f772d6c6576656c2064656c65676174652063616c6c206661696c6564a26469706673582212203519a6ca6baea3bcc30cf6e9db34bd3b8c9020b8d35c7214962ef7815accf38d64736f6c63430008110033",
  "linkReferences": {},
  "deployedLinkReferences": {}
}