{"contracts/Mode.sol":{"Register":{"abi":[{"inputs":[{"internalType":"address","name":"_addr","type":"address"}],"name":"register","outputs":[{"internalType":"uint256","name":"tokenId","type":"uint256"}],"stateMutability":"nonpayable","type":"function"},{"inputs":[{"internalType":"uint256","name":"_tokenId","type":"uint256"},{"internalType":"address payable","name":"_recipient","type":"address"},{"internalType":"uint256","name":"_amount","type":"uint256"}],"name":"withdraw","outputs":[{"internalType":"uint256","name":"","type":"uint256"}],"stateMutability":"nonpayable","type":"function"}],"evm":{"bytecode":{"linkReferences":{},"object":"608060405234801561001057600080fd5b50610111806100206000396000f3fe6080604052348015600f57600080fd5b506004361060325760003560e01c80634420e486146037578063e63697c814605a575b600080fd5b604860423660046085565b50600090565b60405190815260200160405180910390f35b6048606536600460a6565b60009392505050565b6001600160a01b0381168114608257600080fd5b50565b600060208284031215609657600080fd5b8135609f81606e565b9392505050565b60008060006060848603121560ba57600080fd5b83359250602084013560ca81606e565b92959294505050604091909101359056fea2646970667358221220d3f6f2e37078a79b73f9531bead3f11111b9aa99157f2415c055948740e1ff0f64736f6c63430008110033","opcodes":"PUSH1 0x80 PUSH1 0x40 MSTORE CALLVALUE DUP1 ISZERO PUSH2 0x10 JUMPI PUSH1 0x0 DUP1 REVERT JUMPDEST POP PUSH2 0x111 DUP1 PUSH2 0x20 PUSH1 0x0 CODECOPY PUSH1 0x0 RETURN INVALID PUSH1 0x80 PUSH1 0x40 MSTORE CALLVALUE DUP1 ISZERO PUSH1 0xF JUMPI PUSH1 0x0 DUP1 REVERT JUMPDEST POP PUSH1 0x4 CALLDATASIZE LT PUSH1 0x32 JUMPI PUSH1 0x0 CALLDATALOAD PUSH1 0xE0 SHR DUP1 PUSH4 0x4420E486 EQ PUSH1 0x37 JUMPI DUP1 PUSH4 0xE63697C8 EQ PUSH1 0x5A JUMPI JUMPDEST PUSH1 0x0 DUP1 REVERT JUMPDEST PUSH1 0x48 PUSH1 0x42 CALLDATASIZE PUSH1 0x4 PUSH1 0x85 JUMP JUMPDEST POP PUSH1 0x0 SWAP1 JUMP JUMPDEST PUSH1 0x40 MLOAD SWAP1 DUP2 MSTORE PUSH1 0x20 ADD PUSH1 0x40 MLOAD DUP1 SWAP2 SUB SWAP1 RETURN JUMPDEST PUSH1 0x48 PUSH1 0x65 CALLDATASIZE PUSH1 0x4 PUSH1 0xA6 JUMP JUMPDEST PUSH1 0x0 SWAP4 SWAP3 POP POP POP JUMP JUMPDEST PUSH1 0x1 PUSH1 0x1 PUSH1 0xA0 SHL SUB DUP2 AND DUP2 EQ PUSH1 0x82 JUMPI PUSH1 0x0 DUP1 REVERT JUMPDEST POP JUMP JUMPDEST PUSH1 0x0 PUSH1 0x20 DUP3 DUP5 SUB SLT ISZERO PUSH1 0x96 JUMPI PUSH1 0x0 DUP1 REVERT JUMPDEST DUP2 CALLDATALOAD PUSH1 0x9F DUP2 PUSH1 0x6E JUMP JUMPDEST SWAP4 SWAP3 POP POP POP JUMP JUMPDEST PUSH1 0x0 DUP1 PUSH1 0x0 PUSH1 0x60 DUP5 DUP7 SUB SLT ISZERO PUSH1 0xBA JUMPI PUSH1 0x0 DUP1 REVERT JUMPDEST DUP4 CALLDATALOAD SWAP3 POP PUSH1 0x20 DUP5 ADD CALLDATALOAD PUSH1 0xCA DUP2 PUSH1 0x6E JUMP JUMPDEST SWAP3 SWAP6 SWAP3 SWAP5 POP POP POP PUSH1 0x40 SWAP2 SWAP1 SWAP2 ADD CALLDATALOAD SWAP1 JUMP INVALID LOG2 PUSH5 0x6970667358 0x22 SLT KECCAK256 0xD3 0xF6 CALLCODE 0xE3 PUSH17 0x78A79B73F9531BEAD3F11111B9AA99157F 0x24 ISZERO 0xC0 SSTORE SWAP5 DUP8 BLOCKHASH 0xE1 SELFDESTRUCT 0xF PUSH5 0x736F6C6343 STOP ADDMOD GT STOP CALLER "},"methodIdentifiers":{"register(address)":"4420e486","withdraw(uint256,address,uint256)":"e63697c8"}}}}}